{
  "contractName": "Storage",
  "abi": [
    {
      "inputs": [
        {
          "internalType": "uint256",
          "name": "num",
          "type": "uint256"
        }
      ],
      "name": "store",
      "outputs": [],
      "stateMutability": "nonpayable",
      "type": "function"
    },
    {
      "inputs": [],
      "name": "retrieve",
      "outputs": [
        {
          "internalType": "uint256",
          "name": "",
          "type": "uint256"
        }
      ],
      "stateMutability": "view",
      "type": "function",
      "constant": true
    },
    {
      "inputs": [],
      "name": "sum3",
      "outputs": [],
      "stateMutability": "nonpayable",
      "type": "function"
    },
    {
      "inputs": [],
      "name": "substract3",
      "outputs": [],
      "stateMutability": "nonpayable",
      "type": "function"
    },
    {
      "inputs": [],
      "name": "substract7",
      "outputs": [],
      "stateMutability": "nonpayable",
      "type": "function"
    }
  ],
  "bytecode": "0x608060405234801561001057600080fd5b5061028d806100206000396000f3fe608060405234801561001057600080fd5b50600436106100575760003560e01c80632e64cec11461005c5780634240cfee1461007a578063486b21d6146100845780636057361d1461008e578063eff8e54c146100aa575b600080fd5b6100646100b4565b6040516100719190610125565b60405180910390f35b6100826100bd565b005b61008c6100d4565b005b6100a860048036038101906100a39190610171565b6100eb565b005b6100b26100f5565b005b60008054905090565b60036000546100cc91906101cd565b600081905550565b60076000546100e39190610223565b600081905550565b8060008190555050565b60036000546101049190610223565b600081905550565b6000819050919050565b61011f8161010c565b82525050565b600060208201905061013a6000830184610116565b92915050565b600080fd5b61014e8161010c565b811461015957600080fd5b50565b60008135905061016b81610145565b92915050565b60006020828403121561018757610186610140565b5b60006101958482850161015c565b91505092915050565b7f4e487b7100000000000000000000000000000000000000000000000000000000600052601160045260246000fd5b60006101d88261010c565b91506101e38361010c565b9250827fffffffffffffffffffffffffffffffffffffffffffffffffffffffffffffffff038211156102185761021761019e565b5b828201905092915050565b600061022e8261010c565b91506102398361010c565b92508282101561024c5761024b61019e565b5b82820390509291505056fea26469706673582212205a60560372534cd21ddaf510c190d44ffe5af8feae7b20a44d66062e332935b464736f6c634300080d0033",
  "immutableReferences": {},
  "source": "// SPDX-License-Identifier: GPL-3.0\n\npragma solidity >=0.7.0 <0.9.0;\n\n/**\n * @title Storage\n * @dev Store & retrieve value in a variable\n * @custom:dev-run-script ./scripts/deploy_with_ethers.ts\n */\ncontract Storage {\n\n    uint256 number;\n\n    /**\n     * @dev Store value in variable\n     * @param num value to store\n     */\n    function store(uint256 num) public {\n        number = num;\n    }\n\n    /**\n     * @dev Return value\n     * @return value of 'number'\n     */\n    function retrieve() public view returns (uint256){\n        return number;\n    }\n\n    /**\n     * @dev Sum 3 to value\n     */\n    function sum3() public {\n        number = number + 3;\n    }\n\n    /**\n     * @dev Substract 3 to value\n     */\n    function substract3() public {\n        number = number - 3;\n    }\n\n    /**\n     * @dev Substract 7 to value\n     */\n    function substract7() public {\n        number = number - 7;\n    }\n\n}",
  "sourcePath": "/Users/willi/Desktop/repos/blockchain/example/contracts/Storage.sol",
  "compiler": {
    "name": "solc",
    "version": "0.8.13+commit.abaa5c0e.Emscripten.clang"
  },
  "schemaVersion": "3.4.7",
  "updatedAt": "2022-05-03T00:24:03.749Z",
  "networkType": "ethereum",
  "devdoc": {
    "custom:dev-run-script": "./scripts/deploy_with_ethers.ts",
    "details": "Store & retrieve value in a variable",
    "kind": "dev",
    "methods": {
      "retrieve()": {
        "details": "Return value",
        "returns": {
          "_0": "value of 'number'"
        }
      },
      "store(uint256)": {
        "details": "Store value in variable",
        "params": {
          "num": "value to store"
        }
      },
      "substract3()": {
        "details": "Substract 3 to value"
      },
      "substract7()": {
        "details": "Substract 7 to value"
      },
      "sum3()": {
        "details": "Sum 3 to value"
      }
    },
    "title": "Storage",
    "version": 1
  },
  "userdoc": {
    "kind": "user",
    "methods": {},
    "version": 1
  }
}