{
  "contractName": "Computer",
  "abi": [
    {
      "inputs": [],
      "stateMutability": "nonpayable",
      "type": "constructor"
    },
    {
      "inputs": [
        {
          "internalType": "uint256",
          "name": "index",
          "type": "uint256"
        }
      ],
      "name": "use_computer",
      "outputs": [],
      "stateMutability": "nonpayable",
      "type": "function"
    },
    {
      "inputs": [
        {
          "internalType": "uint256",
          "name": "index",
          "type": "uint256"
        }
      ],
      "name": "left_computer",
      "outputs": [],
      "stateMutability": "nonpayable",
      "type": "function"
    },
    {
      "inputs": [
        {
          "internalType": "uint256",
          "name": "index",
          "type": "uint256"
        }
      ],
      "name": "retrieve_computer_is_available",
      "outputs": [
        {
          "internalType": "bool",
          "name": "",
          "type": "bool"
        }
      ],
      "stateMutability": "view",
      "type": "function",
      "constant": true
    },
    {
      "inputs": [
        {
          "internalType": "uint256",
          "name": "index",
          "type": "uint256"
        }
      ],
      "name": "retrieve_computer_current_address",
      "outputs": [
        {
          "internalType": "address",
          "name": "",
          "type": "address"
        }
      ],
      "stateMutability": "view",
      "type": "function",
      "constant": true
    }
  ],
  "bytecode": "0x608060405234801561001057600080fd5b506040518060400160405280600115158152602001600073ffffffffffffffffffffffffffffffffffffffff168152506000806001815260200190815260200160002060008201518160000160006101000a81548160ff02191690831515021790555060208201518160000160016101000a81548173ffffffffffffffffffffffffffffffffffffffff021916908373ffffffffffffffffffffffffffffffffffffffff1602179055509050506040518060400160405280600115158152602001600073ffffffffffffffffffffffffffffffffffffffff168152506000806002815260200190815260200160002060008201518160000160006101000a81548160ff02191690831515021790555060208201518160000160016101000a81548173ffffffffffffffffffffffffffffffffffffffff021916908373ffffffffffffffffffffffffffffffffffffffff1602179055509050506040518060400160405280600115158152602001600073ffffffffffffffffffffffffffffffffffffffff168152506000806003815260200190815260200160002060008201518160000160006101000a81548160ff02191690831515021790555060208201518160000160016101000a81548173ffffffffffffffffffffffffffffffffffffffff021916908373ffffffffffffffffffffffffffffffffffffffff1602179055509050506040518060400160405280600115158152602001600073ffffffffffffffffffffffffffffffffffffffff168152506000806004815260200190815260200160002060008201518160000160006101000a81548160ff02191690831515021790555060208201518160000160016101000a81548173ffffffffffffffffffffffffffffffffffffffff021916908373ffffffffffffffffffffffffffffffffffffffff1602179055509050506040518060400160405280600115158152602001600073ffffffffffffffffffffffffffffffffffffffff168152506000806005815260200190815260200160002060008201518160000160006101000a81548160ff02191690831515021790555060208201518160000160016101000a81548173ffffffffffffffffffffffffffffffffffffffff021916908373ffffffffffffffffffffffffffffffffffffffff1602179055509050506040518060400160405280600115158152602001600073ffffffffffffffffffffffffffffffffffffffff168152506000806006815260200190815260200160002060008201518160000160006101000a81548160ff02191690831515021790555060208201518160000160016101000a81548173ffffffffffffffffffffffffffffffffffffffff021916908373ffffffffffffffffffffffffffffffffffffffff1602179055509050506040518060400160405280600115158152602001600073ffffffffffffffffffffffffffffffffffffffff168152506000806007815260200190815260200160002060008201518160000160006101000a81548160ff02191690831515021790555060208201518160000160016101000a81548173ffffffffffffffffffffffffffffffffffffffff021916908373ffffffffffffffffffffffffffffffffffffffff1602179055509050506040518060400160405280600115158152602001600073ffffffffffffffffffffffffffffffffffffffff168152506000806008815260200190815260200160002060008201518160000160006101000a81548160ff02191690831515021790555060208201518160000160016101000a81548173ffffffffffffffffffffffffffffffffffffffff021916908373ffffffffffffffffffffffffffffffffffffffff1602179055509050506040518060400160405280600115158152602001600073ffffffffffffffffffffffffffffffffffffffff168152506000806009815260200190815260200160002060008201518160000160006101000a81548160ff02191690831515021790555060208201518160000160016101000a81548173ffffffffffffffffffffffffffffffffffffffff021916908373ffffffffffffffffffffffffffffffffffffffff1602179055509050506040518060400160405280600115158152602001600073ffffffffffffffffffffffffffffffffffffffff16815250600080600a815260200190815260200160002060008201518160000160006101000a81548160ff02191690831515021790555060208201518160000160016101000a81548173ffffffffffffffffffffffffffffffffffffffff021916908373ffffffffffffffffffffffffffffffffffffffff16021790555090505061047c806106d86000396000f3fe608060405234801561001057600080fd5b506004361061004c5760003560e01c80630d69805c14610051578063451c80101461006d57806376edbe311461009d578063da701b61146100cd575b600080fd5b61006b60048036038101906100669190610387565b6100e9565b005b61008760048036038101906100829190610387565b6101ae565b60405161009491906103cf565b60405180910390f35b6100b760048036038101906100b29190610387565b6101da565b6040516100c4919061042b565b60405180910390f35b6100e760048036038101906100e29190610387565b610219565b005b6000811180156100fa5750600a8111155b156101ab5760008082815260200190815260200160002060000160009054906101000a900460ff16156101aa57600080600083815260200190815260200160002060000160006101000a81548160ff0219169083151502179055503360008083815260200190815260200160002060000160016101000a81548173ffffffffffffffffffffffffffffffffffffffff021916908373ffffffffffffffffffffffffffffffffffffffff1602179055505b5b50565b600080600083815260200190815260200160002060000160009054906101000a900460ff169050919050565b600080600083815260200190815260200160002060000160019054906101000a900473ffffffffffffffffffffffffffffffffffffffff169050919050565b60008111801561022a5750600a8111155b156103495760008082815260200190815260200160002060000160009054906101000a900460ff161580156102bf57503373ffffffffffffffffffffffffffffffffffffffff1660008083815260200190815260200160002060000160019054906101000a900473ffffffffffffffffffffffffffffffffffffffff1673ffffffffffffffffffffffffffffffffffffffff16145b1561034857600160008083815260200190815260200160002060000160006101000a81548160ff021916908315150217905550600080600083815260200190815260200160002060000160016101000a81548173ffffffffffffffffffffffffffffffffffffffff021916908373ffffffffffffffffffffffffffffffffffffffff1602179055505b5b50565b600080fd5b6000819050919050565b61036481610351565b811461036f57600080fd5b50565b6000813590506103818161035b565b92915050565b60006020828403121561039d5761039c61034c565b5b60006103ab84828501610372565b91505092915050565b60008115159050919050565b6103c9816103b4565b82525050565b60006020820190506103e460008301846103c0565b92915050565b600073ffffffffffffffffffffffffffffffffffffffff82169050919050565b6000610415826103ea565b9050919050565b6104258161040a565b82525050565b6000602082019050610440600083018461041c565b9291505056fea26469706673582212201eaacd877a07de80d972a8d69347b9de6962a5f64b0a871ec1ec6a59f0092b5564736f6c634300080d0033",
  "immutableReferences": {},
  "source": "// SPDX-License-Identifier: GPL-3.0\n\npragma solidity >=0.7.0 <0.9.0;\n\n// let computer = await Computer.deployed()\ncontract Computer {\n\n    struct computer {\n        bool available;\n        address occupant;\n    }\n\n    mapping (uint => computer) computers;\n    \n    constructor() {\n        computers[1] = computer({available: true, occupant: address(0)});\n        computers[2] = computer({available: true, occupant: address(0)});\n        computers[3] = computer({available: true, occupant: address(0)});\n        computers[4] = computer({available: true, occupant: address(0)});\n        computers[5] = computer({available: true, occupant: address(0)});\n        computers[6] = computer({available: true, occupant: address(0)});\n        computers[7] = computer({available: true, occupant: address(0)});\n        computers[8] = computer({available: true, occupant: address(0)});\n        computers[9] = computer({available: true, occupant: address(0)});\n        computers[10] = computer({available: true, occupant: address(0)});\n    }\n\n    function use_computer(uint index) public {\n        if (index > 0 && index <= 10) {\n            if (computers[index].available) {\n                computers[index].available = false;\n                computers[index].occupant = msg.sender;\n            }\n        }\n    }\n\n    function left_computer(uint index) public {\n        if (index > 0 && index <= 10) {\n            if (!computers[index].available && computers[index].occupant == msg.sender) {\n                computers[index].available = true;\n                computers[index].occupant = address(0);\n            }\n        }\n    }\n\n    function retrieve_computer_is_available(uint index) public view returns (bool){\n        return computers[index].available;\n    }\n\n    function retrieve_computer_current_address(uint index) public view returns (address){\n        return computers[index].occupant;\n    }\n\n}",
  "sourcePath": "/Users/willi/Desktop/repos/blockchain/web3_example/backend/contracts/Computer.sol",
  "compiler": {
    "name": "solc",
    "version": "0.8.13+commit.abaa5c0e.Emscripten.clang"
  },
  "schemaVersion": "3.4.7",
  "updatedAt": "2022-05-16T23:46:59.137Z",
  "networkType": "ethereum",
  "devdoc": {
    "kind": "dev",
    "methods": {},
    "version": 1
  },
  "userdoc": {
    "kind": "user",
    "methods": {},
    "version": 1
  }
}